:1008CB00EF1FAA0670011E4A60107C037D52ED1DBE
:0A08DB00AA0470011C4A60E880F4D2
:0108E50022F0
:10025900EFD3940540037F012212041DFED39403BA
:1002690040037F0222EF7041EE700B9000011204EF
:1002790036F45293529412041DB4010B90000112EA
:1002890004364293F4529412041DFEB4020A9000FB
:100299000112043642934294EEB4030D9000011208
:1002A9000436FEF45293EE4294EF64017043120453
:1002B9001DFE700B900001120436F452915292EE19
:1002C900B4010B9000011204364291F452921204C7
:1002D9001DB4020A9000011204364291429212049E
:1002E9001DB4030D900001120436FEF45291EE4242
:1002F90092EF6402704312041DFE700B900001120C
:100309000436F452955296EEB4010B900001120492
:10031900364295F4529612041DB4020A9000011255
:1003290004364295429612041DB4030D9000011241
:100339000436FEF45295EE4296EF640370431204BC
:100349001DFE700B900001120436F452B152B2EE48
:10035900B4010B90000112043642B1F452B21204F6
:100369001DB4020A90000112043642B142B21204CD
:100379001DB4030D900001120436FEF452B1EE4291
:10038900B2EF6404704312041DFE700B9000011259
:100399000436F452B352B4EEB4010B9000011204C6
:1003A9003642B3F452B412041DB4020A9000011289
:1003B900043642B342B412041DB4030D9000011275
:1003C9000436FEF452B3EE42B4EF640570431204EE
:1003D9001DFF700B900001120436F452C952CAEF86
:1003E900B4010B90000112043642C9F452CA120436
:1003F9001DB4020A90000112043642C942CA12040D
:100409001DB4030D900001120436FFF452C9EF42E6
:04041900CA7F002274
:02001800C10322
:0508F400C2ABD203229B
:10083700E4F50B750C01F50D750E01F50FF510F5C7
:1008470011F512F513F514F515FB7A00790BFF0274
:02085700006639
:10080B00E4F508F509A20433FFF50A750B02E4F5CC
:10081B000C74FFF50DF50E8F0FF510751108751291
:0C082B00F47B007A0079087F010200666F
:10089300E4FFFEF58AF58CD28C20B505E58C30E7B4
:0B08A300F8C28CAF8CEFFEAD8AEDFFB9
:0108AE002227
:1008AF00E4FFFEF58AF58CD28C30B505E58C30E788
:0B08BF00F8C28CAF8CEFFEAD8AEDFF9D
:0108CA00220B
:06050A008B0B8A0C890D29
:100510001208AF8E0E8F0FC3E50F9466E50E940E92
:10052000400BD3E50F9400E50E94124002C322E481
:10053000FCE4F5101208938E0E8F0FC3E50F94B8EC
:10054000E50E9400400BD3E50F94E1E50E940240D4
:1005500002C3221208AF8E0E8F0FC3E50F94B8E5C9
:100560000E9400400BD3E50F9433E50E9407400240
:10057000C322AB0BECFF3395E0FEE50D2FF9E50C44
:100580003EFA12041DC313120463D3E50F9408E569
:100590000E94044018AB0BECFF3395E0FEE50D2FF5
:1005A000F9E50C3EFA12041D44801204630510C3E1
:1005B000E5106480948850030205340CEC640460F8
:0505C00003020531D328
:0105C5002213
:0607DC008B088A09890A5E
:1007E200C204200302C322120837120893D3EF94E3
:1007F20033EE9422400122AB08AA09A90A12050A83
:080802009204C203D2ABA20470
:01080A0022CB
:08000300D20412080BC2032213
:08005B00C20412080BC20322CB
:100652007508017509017B007A0079087F0312028F
:1006620059E4F508750902FB7A0079087F03120242
:1006720059E4F508750904FB7A0079087F03120230
:1006820059D2B2E4F508750908FB7A0079087F03AC
:10069200120259D2B3E4F508750910FB7A00790801
:1006A2007F03120259D2B47508017509207B007AC2
:0806B2000079087F03020259E0
:10001E00D2AF1206521200037B007A00793112071A
:10002E00DC50F5A2B2B392B2C2B31207A7AF31122F
:10003E0008E6AF321208E6AF331208E6AF34120804
:0D004E00E67FFF1208E612000ED2B380CB51
:10085900200202C322E52F65306010AF2F052FEF6C
:0D086900540F2427F8E6120463D322C322A3
:0E08E600200202C3222001FD8F23D201D32263
:10087600AD07AC068D828C83E49360100DED70019C
:0D0886000C14F582E493FF1208E680E822CE
:1006BA0030002A1525E525702F752503D52210C28D
:1006CA0000AF300530EF540F2427F8A6218019E532
:1006DA0021C313F52130B010432180800B20B008CC
:1006EA00D2007525047522093001231526E52670E6
:1006FA001D752603E5247006C2B175240922D52486
:0F070A0005D2B1C20122E523C313F52392B12218
:1007A700E4F508750901750A01F50BF50C750DFEE1
:1007B700750E80750F017510FF7511067512BAFB5E
:1007C7007A007908FF120066C201C200752603E4A9
:0407D700F525D20230
:0107DB0022FB
:0A000E00C2022001FDC28CC2A9222B
:03000B00020719D0
:10071900C0E0C0F0C083C082C0D075D000C000C0A6
:1007290001C002C003C004C005C006C007E51A45E0
:100739001B45196007AA1AA91B1204DDD007D006A8
:10074900D005D004D003D002D001D000D0D0D082BF
:07075900D083D0F0D0E032A4
:03001B0002076079
:10076000C0E0C0F0C083C082C0D075D000C000C05F
:1007700001C002C003C004C005C006C007E51D4596
:100780001E451C6007AA1DA91E1204DDD007D00655
:10079000D005D004D003D002D001D000D0D0D08278
:0707A000D083D0F0D0E0325D
:030063000208F997
:0108F90032CC
:100066008B168A178918AD07EDD3940240037F01DA
:1000760022ED6003020126C28CAB16AA17A91890BE
:1000860000081204AD8B198A1A891BAB16AA17A988
:1000960018900002120436B40104D2A98002C2A943
:1000A600900001120436B40104D2B98002C2B9121A
:1000B600041DFED3940340037F0222E58954FC4EBF
:1000C600F589900003120436FFB40103538E7FEFC7
:1000D6007003438E80EFB40205438904800353897D
:1000E600FBAB16AA17A918900004120436B4010532
:1000F600438F018003538FFEAB16AA17A9189000F1
:1001060005120475FBAAF0EAF58C8B8AAB16AA17C2
:10011600A918900007120436B40102D28C7F00227F
:10012600ED640160030201D7C28EAB16AA17A918A7
:100136009000081204AD8B1C8A1D891EAB16AA17E7
:10014600A918900002120436B40104D2AB8002C290
:10015600AB900001120436B40104D2BB8002C2BBCC
:1001660012041DFEC3940340037F0222E58954CF87
:100176004EF589900003120436FFB40103538EBF77
:10018600EF7003438E40EFB402054389408003536A
:1001960089BFAB16AA17A918900004120436B40139
:1001A60005438F028003538FFDAB16AA17A918903B
:1001B6000005120475FBAAF0EAF58D8B8BAB16AA27
:1001C60017A918900007120436B40102D28E7F00D8
:1001D60022ED6402707A538EEFAB16AA17A9189017
:1001E6000002120436B4010543AF04800353AFFB8B
:1001F600900003120436FED3940240037F0222EEDF
:10020600B40103538EFB9000031204367003438E31
:1002160004900003120436B40205438E088003538B
:100226008EF7900004120436B40105438F04800350
:10023600538FFB900005120475FDACF0ECF5D68DDE
:10024600D7900007120436B40103438E107F0022B4
:030256007F022202
:030000000205C630
:0C05C600787FE4F6D8FD75813402060D44
:10041D00BB010689828A83E0225002E722BBFE02DD
:09042D00E32289828A83E4932210
:10043600BB010CE58229F582E5833AF583E022507B
:1004460006E92582F8E622BBFE06E92582F8E222C5
:0D045600E58229F582E5833AF583E49322DF
:10046300BB010689828A83F0225002F722BBFE0178
:02047300F32272
:10047500BB0110E58229F582E5833AF583E0F5F0C5
:10048500A3E0225009E92582F886F008E622BBFEA2
:100495000AE92582F8E2F5F008E222E5832AF583E8
:0804A500E993F5F0A3E99322AD
:1004AD00BB010DE58229F582E5833AF5830204EC63
:1004BD005007E92582F80204E3BBFE07E92582F81F
:1004CD000204F5E58229F582E5833AF5830204FEFF
:0604DD008A838982E473AA
:1005D20002001EE493A3F8E493A34003F68001F221
:1005E20008DFF48029E493A3F85407240CC8C3332A
:1005F200C4540F4420C8834004F456800146F6DFF9
:10060200E4800B0102040810204080900018E47E70
:10061200019360BCA3FF543F30E509541FFEE493ED
:10062200A360010ECF54C025E060A840B8E493A3B4
:10063200FAE493A3F8E493A3C8C582C8CAC583CADF
:10064200F0A3C8C582C8CAC583CADFE9DEE780BE97
:01001A0000E5
:0904E300E6FB08E6FA08E6F9223E
:0904EC00E0FBA3E0FAA3E0F92211
:0904F500E2FB08E2FA08E2F92238
:0C04FE00E493FB740193FA740293F9225A
:00000001FF
