:100B8800EF1FAA0670011E4A60107C037D52ED1DFE
:0A0B9800AA0470011C4A60E880F412
:010BA2002230
:10025900EFD3940540037F01221205A9FED394032D
:1002690040037F0222EF7041EE700B9000011205EE
:10027900C2F4529352941205A9B4010B90000112D1
:1002890005C24293F452941205A9FEB4020A9000E1
:10029900011205C242934294EEB4030D900001127B
:1002A90005C2FEF45293EE4294EF640170431205C5
:1002B900A9FE700B9000011205C2F452915292EE00
:1002C900B4010B9000011205C24291F45292120539
:1002D900A9B4020A9000011205C242914292120584
:1002E900A9B4030D9000011205C2FEF45291EE4229
:1002F90092EF640270431205A9FE700B900001127F
:1003090005C2F452955296EEB4010B900001120504
:10031900C24295F452961205A9B4020A900001123C
:1003290005C2429542961205A9B4030D9000011227
:1003390005C2FEF45295EE4296EF6403704312052E
:10034900A9FE700B9000011205C2F452B152B2EE2F
:10035900B4010B9000011205C242B1F452B2120568
:10036900A9B4020A9000011205C242B142B21205B3
:10037900A9B4030D9000011205C2FEF452B1EE4278
:10038900B2EF640470431205A9FE700B90000112CC
:1003990005C2F452B352B4EEB4010B900001120538
:1003A900C242B3F452B41205A9B4020A9000011270
:1003B90005C242B342B41205A9B4030D900001125B
:1003C90005C2FEF452B3EE42B4EF64057043120560
:1003D900A9FF700B9000011205C2F452C952CAEF6D
:1003E900B4010B9000011205C242C9F452CA1205A8
:1003F900A9B4020A9000011205C242C942CA1205F3
:10040900A9B4030D9000011205C2FFF452C9EF42CD
:04041900CA7F002274
:02000E00C1052A
:050BB500C2ABD20522D5
:100AF400E4F50D750E01F50F751001F511F512F5FC
:100B040013F514F515F516F517FB7A00790DFF02A8
:020B1400006679
:100AA300E4F508F509A20633FFF50A750B02E4F530
:100AB3000C74FFF50DF50E8F0FF51075110B7512F4
:0C0AC300B57B007A0079087F0102006614
:100B5000E4FFFEF58AF58CD28C20B505E58C30E7F4
:0B0B6000F8C28CAF8CEFFEAD8AEDFFF9
:010B6B002267
:100B6C00E4FFFEF58AF58CD28C30B505E58C30E7C8
:0B0B7C00F8C28CAF8CEFFEAD8AEDFFDD
:010B8700224B
:0606B7008B0D8A0E890F75
:1006BD00120B6C8E108F11C3E5119466E510940E1C
:1006CD00400BD3E5119400E51094124002C322E4CF
:1006DD00FCE4F512120B508E108F11C3E51194B876
:1006ED00E5109400400BD3E51194E1E51094024020
:1006FD0002C322120B6C8E108F11C3E51194B8E555
:10070D00109400400BD3E5119433E510940740028B
:10071D00C322AB0DECFF3395E0FEE50F2FF9E50E8F
:10072D003EFA1205A9C3131205EFD3E5119408E59E
:10073D001094044018AB0DECFF3395E0FEE50F2F40
:10074D00F9E50E3EFA1205A944801205EF0512C314
:10075D00E5126480948850030206E10CEC64046099
:05076D00030206DED3CB
:010772002264
:060ACF008B088A09890A68
:100AD500C206200502C322120AF4120B50AB08AA63
:0E0AE50009A90A1206B79206C205D2ABA206F4
:010AF30022E0
:08000300D206120AA3C2052275
:080BAD00C206120AA3C20522D0
:100956000000002D0000002D00000058000000A738
:100966000000001A000000A1000000DC0000007377
:10097600000000C000000001000000100000002E72
:100986000000002D0000002D00000030000000CF08
:100996000000001A000000A1000000DC0000004377
:1009A600000000C000000001000000100000002E42
:07001000C103C104011F0040
:10088B007508017509017B007A0079087F03120254
:10089B0059E4F508750902FB7A0079087F03120207
:1008AB0059E4F508750904FB7A0079087F031202F5
:1008BB0059D2B2E4F508750908FB7A0079087F0371
:1008CB00120259D2B3E4F508750910FB7A007908C6
:1008DB007F03120259D2B47508017509207B007A87
:0808EB000079087F03020259A5
:1008F30030061EE4FCFDB2B4E4FEFF0FBF00010EA0
:10090300BE01F8BF2CF50DBD00010CBC01E8BD2CE8
:10091300E5E4FCFDB2B4E4FEFF0FBF00010EEF649B
:10092300644E70F50DBD00010CBC03E8BDE8E52085
:10093300061EE4FCFDB2B4E4FEFF0FBF00010EBED1
:1009430001F8BF2CF50DBD00010CBC01E8BD2CE581
:02095300D2B41C
:01095500227F
:06041D008B088A09890A20
:10042300750B03750DFFE4F50CE50CC3950B400349
:100433000205A6E50D640270030204EBAB08AA09EA
:10044300A90A1205A9FFE4FCFDFEE50CC454F0243F
:1004530056F582E43409F58312064AC3120639605D
:10046300030204EBAB08AA09A90A9000011205C212
:10047300FFE4FCFDFEE50CC454F0245AF582E43499
:1004830009F58312064AC3120639705CAB08AA0940
:10049300A90A9000021205C2FFE4FCFDFEE50CC4AC
:1004A30054F0245EF582E43409F58312064AC3123C
:1004B30006397034AB08AA09A90A9000031205C2D1
:1004C300FFE4FCFDFEE50CC454F02462F582E43441
:1004D30009F58312064AC3120639700CE50D700440
:1004E3007F0280027F018F0DE50D64027003020518
:1004F300A1AB08AA09A90A1205A9FFE4FCFDFEE5C0
:100503000CC454F02486F582E43409F58312064AB8
:10051300C312063960030205A1AB08AA09A90A9010
:1005230000011205C2FFE4FCFDFEE50CC454F024F7
:100533008AF582E43409F58312064AC31206397038
:100543005DAB08AA09A90A9000021205C2FFE4FCE8
:10055300FDFEE50CC454F0248EF582E43409F583E2
:1005630012064AC31206397035AB08AA09A90A90C4
:1005730000031205C2FFE4FCFDFEE50CC454F024A5
:1005830092F582E43409F58312064AC312063970E0
:100593000DE50DB401047F0280027F008F0D050C71
:0505A30002042CAF0D65
:0105A8002230
:1007730075C13ED2AF12088B120003C2B37FF47E61
:1007830001120B88D2B375C13D7B007A00791B122D
:100793000ACF504612001EAF1B120053AF1C1200AB
:1007A30053AF1D120053AF1E1200537FFF120053AD
:1007B300120BA37B007A00791B12041DEF600D243A
:1007C300FE600F047012D203D204800EC203D2045F
:1007D3008008B203D2048002C2043004A9C20430E8
:1007E3000304C2B28002D2B2A20392061208F3C279
:0C07F300B37FC87E00120B88D2B3808A4E
:100B1600200202C322E52F65306010AF2F052FEFAC
:0D0B2600540F2427F8E61205EFD322C32256
:0E005300200202C3222001FD8F23D201D322FE
:100B3300AD07AC068D828C83E49360100DED7001DC
:0D0B43000C14F582E493FF12005380E822A9
:1009B60030002A1525E525702F752503D52210C28E
:1009C60000AF300530EF540F2427F8A6218019E533
:1009D60021C313F52130B010432180800B20B008CD
:1009E600D2007525047522093001231526E52670E7
:1009F6001D752603E5247006C2B175240922D52487
:0F0A060005D2B1C20122E523C313F52392B12219
:10001E00E4F508750901750A01F50BF50C750DFE71
:10002E00750E80750F017510FF7511097512B6FBEF
:10003E007A007908FF120066C201C200752603E439
:04004E00F525D202C0
:01005200228B
:0A0BA300C2022001FDC28CC2A9228B
:03000B00020A15D1
:100A1500C0E0C0F0C083C082C0D075D000C000C0A7
:100A250001C002C003C004C005C006C007E53245C9
:100A35003345316007AA32A93312068AD007D0069A
:100A4500D005D004D003D002D001D000D0D0D082C0
:070A5500D083D0F0D0E032A5
:03001B00020A5C7A
:100A5C00C0E0C0F0C083C082C0D075D000C000C060
:100A6C0001C002C003C004C005C006C007E535457F
:100A7C003645346007AA35A93612068AD007D00647
:100A8C00D005D004D003D002D001D000D0D0D08279
:070A9C00D083D0F0D0E0325E
:0300630002001880
:0100180032B5
:100066008B188A19891AAD07EDD3940240037F01D4
:1000760022ED6003020126C28CAB18AA19A91A90B8
:10008600000812065A8B318A328933AB18AA19A98D
:100096001A9000021205C2B40104D2A98002C2A9B4
:1000A6009000011205C2B40104D2B98002C2B9128D
:1000B60005A9FED3940340037F0222E58954FC4E32
:1000C600F5899000031205C2FFB40103538E7FEF3A
:1000D6007003438E80EFB40205438904800353897D
:1000E600FBAB18AA19A91A9000041205C2B401059F
:1000F600438F018003538FFEAB18AA19A91A9000EB
:1001060005120601FBAAF0EAF58C8B8AAB18AA1930
:10011600A91A9000071205C2B40102D28C7F0022F0
:10012600ED640160030201D7C28EAB18AA19A91AA1
:1001360090000812065A8B348A358936AB18AA19EC
:10014600A91A9000021205C2B40104D2AB8002C201
:10015600AB9000011205C2B40104D2BB8002C2BB3F
:100166001205A9FEC3940340037F0222E58954CFFA
:100176004EF5899000031205C2FFB40103538EBFEA
:10018600EF7003438E40EFB402054389408003536A
:1001960089BFAB18AA19A91A9000041205C2B401A6
:1001A60005438F028003538FFDAB18AA19A91A9035
:1001B6000005120601FBAAF0EAF58D8B8BAB18AA97
:1001C60019A91A9000071205C2B40102D28E7F0047
:1001D60022ED6402707A538EEFAB18AA19A91A9011
:1001E60000021205C2B4010543AF04800353AFFBFE
:1001F6009000031205C2FED3940240037F0222EE52
:10020600B40103538EFB9000031205C27003438EA4
:10021600049000031205C2B40205438E08800353FE
:100226008EF79000041205C2B40105438F048003C3
:10023600538FFB900005120601FDACF0ECF5D68D50
:10024600D79000071205C2B40103438E107F002227
:030256007F022202
:030000000207FFF5
:0C07FF00787FE4F6D8FD758136020846CC
:1005A900BB010689828A83E0225002E722BBFE0250
:0905B900E32289828A83E4932283
:1005C200BB010CE58229F582E5833AF583E02250EE
:1005D20006E92582F8E622BBFE06E92582F8E22238
:0D05E200E58229F582E5833AF583E4932252
:1005EF00BB010689828A83F0225002F722BBFE01EB
:0205FF00F322E5
:10060100BB0110E58229F582E5833AF583E0F5F037
:10061100A3E0225009E92582F886F008E622BBFE14
:100621000AE92582F8E2F5F008E222E5832AF5835A
:08063100E993F5F0A3E993221F
:10063900EB9FF5F0EA9E42F0E99D42F0E89C45F017
:01064900228E
:10064A00E493F8740193F9740293FA740393FB2206
:10065A00BB010DE58229F582E5833AF58302069905
:10066A005007E92582F8020690BBFE07E92582F8C1
:10067A000206A2E58229F582E5833AF5830206ABF2
:06068A008A838982E473FB
:10080B00020773E493A3F8E493A34003F68001F289
:10081B0008DFF48029E493A3F85407240CC8C333EE
:10082B00C4540F4420C8834004F456800146F6DFBD
:10083B00E4800B010204081020408090000EE47E3F
:10084B00019360BCA3FF543F30E509541FFEE493B2
:10085B00A360010ECF54C025E060A840B8E493A379
:10086B00FAE493A3F8E493A3C8C582C8CAC583CAA4
:10087B00F0A3C8C582C8CAC583CADFE9DEE780BE5C
:0100170000E8
:09069000E6FB08E6FA08E6F9228F
:09069900E0FBA3E0FAA3E0F92262
:0906A200E2FB08E2FA08E2F92289
:0C06AB00E493FB740193FA740293F922AB
:00000001FF
